:100000007FC0000099C00000C9C0000095C000007A
:1000100093C0000091C000008FC000008DC00000A0
:100020008BC0000089C0000087C0000085C50000AB
:1000300048C5000081C000007FC000007DC00000F6
:100040007BC0000079C0000077C000008AC00000BB
:1000500073C0000071C000006FC00000D5C1000077
:100060006BC0000069C0000067C0000065C00000F0
:1000700063C000001201100102000008EB034420DD
:1000800001000102DC0109023E00020100C0320948
:1000900004000001020201000524001001042402F2
:1000A000060524060001070582030800FF09040174
:1000B00000020A000000070504021000050705837E
:1000C00002100005040309041803440065006100E0
:1000D0006E002000430061006D0065007200610049
:1000E00000001C034C005500460041002000430066
:1000F000440043002000440065006D006F000000D4
:1001000011241FBECFEFD2E0DEBFCDBF11E0A0E0D3
:10011000B1E0E2E1F4E102C005900D92AA35B10729
:10012000D9F712E0AAE5B1E001C01D92A334B107EE
:10013000E1F705D20C94070A63CF982F8091C8008D
:1001400085FFFCCF9093CE000895CF93DF93EC0111
:1001500002C02196F2DF88818823D9F7DF91CF9101
:1001600008951F920F920FB60F9211248F939F93B1
:1001700080915F018F5F80935F0180915F01853681
:1001800034F085B190E4892785B910925F019F9181
:100190008F910F900FBE0F901F9018951F920F9286
:1001A0000FB60F9211242F933F934F935F936F934A
:1001B0007F938F939F93AF93BF93EF93FF9380E0D1
:1001C00091E0C3DFFF91EF91BF91AF919F918F912C
:1001D0007F916F915F914F913F912F910F900FBE43
:1001E0000F901F901895479A80E395E728EC30E030
:1001F000F9013197F1F70197D9F747980895DC0194
:100200008C91282F30E041E050E00BC04F5F5F4FF2
:1002100080915801992787FD9095481759070CF050
:1002200045C0FA01E259FE4F8081992787FD9095DC
:100230002817390759F716C0FA01E259FE4F808195
:10024000992787FD909530E08217930779F54F5FE6
:100250005F4F80915801992787FD9095481759075E
:100260002CF511962C91222339F710925E0113C0C0
:10027000E0915E01FF27E7FDF095DA01A259BE4F3C
:100280008C91EE52FE4F808380915E018F5F809350
:100290005E014F5F5F4F80915801992787FD9095D0
:1002A00001974817590724F381E0089580E00895E5
:1002B00080915801823094F022E006C0E259FE4F4E
:1002C00080818D3061F02F5FE22FF0E08091580146
:1002D000992787FD9095E817F90784F320E0822F8E
:1002E00008958091580182303CF080916F018D30EB
:1002F00019F081E080935801DBDF882309F185E064
:1003000091E07DDF813061F48AE091E01EDF88E8D2
:1003100093E128EC30E0F9013197F1F70197D9F733
:100320008FE091E06CDF813041F486B1882321F0C9
:100330008091E701823209F056DF81E08093580115
:100340000895E8ECF0E0208122602083E9ECF0E001
:10035000208128692083EAECF0E020812660208358
:100360009093CD008093CC00539A089508950895FA
:100370008CE391E0F3C60F931F93009157018CE338
:1003800091E0C5D620E090E010E080239123892BF6
:1003900009F021E0209357011F910F91089584B730
:1003A000877F84BF88E10FB6F89480936000109235
:1003B00060000FBE80E784B980E887B9429A80E088
:1003C00090E020E80FB6F8942093610080936100DC
:1003D0000FBE68D389E190E0B4DF84B5826084BD4C
:1003E00085B5856085BDEEE6F0E080818260808322
:1003F0008FEF87BD5198E9E6F0E080818C608083C3
:10040000E99A3A98429A08951F920F920FB60F9266
:1004100011241F932F933F934F935F936F937F9379
:100420008F939F93AF93BF93EF93FF93DF93CF93FC
:1004300000D0CDB7DEB71091CE0080915701882350
:1004400079F080915D01882359F0812F992787FDEC
:1004500090959A838983CE01019660E671E04AD730
:1004600080915801813011F41D3089F48091580138
:1004700083366CF4E0915801FF27E7FDF095E259CF
:10048000FE4F1083809158018F5F809358010F9029
:100490000F90CF91DF91FF91EF91BF91AF919F911D
:1004A0008F917F916F915F914F913F912F911F910C
:1004B0000F900FBE0F901F901895AF92BF92CF92E2
:1004C000DF92EF92FF920F931F93DF93CF9300D0B1
:1004D00000D00F92CDB7DEB76B018C017E0108947E
:1004E000E11CF11C88ECA82EB12C16C08DE191E026
:1004F0002CDEC801B7014AE050E0DDD6C70125DE99
:1005000086E291E022DE88EB9BE0F5013197F1F77E
:100510000197D9F70F5F1F4FC016D1063CF70F9018
:100520000F900F900F900F90CF91DF911F910F912F
:10053000FF90EF90DF90CF90BF90AF900895BF9263
:10054000CF92DF92EF92FF920F931F93DF93CF939F
:1005500000D000D00F92CDB7DEB721DF8CE391E061
:1005600060E671E03BD5789480E593EC28EC30E0D0
:10057000F9013197F1F70197D9F780E091E0E5DDD6
:1005800088E893E128EC30E0F9013197F1F7019721
:10059000D9F781E090E0D6D680935C01BB24B39478
:1005A0007E010894E11CF11C98ECC92ED12C80919D
:1005B0005701882309F482C08CE391E0E1D48C01D7
:1005C00097FD78C08A32910529F410925B01109250
:1005D0005A0144C08D30910521F08A31910509F00E
:1005E0003AC088E291E0B1DD88EB9BE0F6013197FB
:1005F000F1F70197D9F7B092580184E391E060E6F2
:1006000071E078D60A31110531F580915C012091B5
:100610005A0130915B01992787FD9095281739077A
:100620005CF480915A0190915B0160915C017727A5
:1006300067FD7095019641DF80915A0190915B01B1
:1006400080935C0160915C01772767FD709581E084
:1006500090E07DD61CC00D301105C9F480915A017F
:1006600090915B01019690935B0180935A018DE11B
:1006700091E06BDD80915A0190915B01B7014AE0F6
:1006800050E019D6C70161DD89E391E05EDDC80164
:10069000C0970A9710F4802F50DD0B31110511F42B
:1006A000A2DD08C00436110529F480915D018B2577
:1006B00080935D018CE391E0DDD44DD412DE86B1F0
:1006C000882311F42D9A73CF2D9871CFDA019230CF
:1006D00049F0933061F09130F9F4E4E7F0E022E181
:1006E00030E01EC0E6E8F0E02EE330E019C08130D3
:1006F00049F0813018F0823079F408C0E4ECF0E081
:10070000849107C0E8ECF0E0849103C0E2EEF0E0F1
:100710008491282F30E004C0E0E0F0E020E030E0F9
:10072000ED93FC93C90108959C01409141025091C1
:1007300042024617570718F4F90190E03DC06115D1
:10074000710511F0AB01F8CF8091E8008E778093AE
:10075000E80040E050E0F0CF80913A028823F1F1C8
:100760008530F1F18091E80083FF02C081E00895B7
:100770008091E80082FD2CC08091E80080FF1CC0C1
:100780008091F200282F30E007C081918093F10022
:10079000415050402F5F3F4F4115510519F028300F
:1007A000310598F390E02830310509F491E080910B
:1007B000E8008E778093E8004115510569F699238A
:1007C00059F606C080913A02882341F0853041F005
:1007D0008091E80082FFF6CF80E0089582E00895DE
:1007E00083E008959C0140914102509142024617D6
:1007F000570718F4F90190E040C06115710511F038
:10080000AB01F8CF8091E8008E778093E80040E05C
:1008100050E0F0CF80913A02882309F440C085303F
:1008200009F43FC08091E80083FF02C081E0089591
:100830008091E80082FD2DC08091E80080FF1DC0FE
:100840008091F200282F30E008C084918093F1005D
:100850003196415050402F5F3F4F4115510519F0DF
:100860002830310590F390E02830310509F491E00B
:100870008091E8008E778093E8004115510551F68C
:10088000992341F606C080913A02882341F08530D1
:1008900041F08091E80082FFF6CF80E0089582E089
:1008A000089583E00895382F282F2EC0822F8F704F
:1008B0008093E900231721F4762F942F50E006C08F
:1008C0007091EC009091ED005091F00091FF1BC0F1
:1008D0008091EB008E7F8093EB008091ED008D7F07
:1008E0008093ED008091EB0081608093EB0070932A
:1008F000EC009093ED005093F0008091EE0087FDA6
:1009000002C080E008952F5F253080F23F70309361
:10091000E90081E008950F931F93CF93DF93062F93
:10092000EC0110E02AC09881992329F16B81E981BB
:10093000FA812C81892F8F70853018F5223010F4C0
:1009400052E001C056E040E028E030E003C04F5FD5
:10095000220F331F2E173F07D0F36295660F660FE5
:10096000607C991F9927991F692B4295407F452BE1
:100970009ADF882331F01F5F25961017A0F281E0DF
:1009800001C080E0DF91CF911F910F910895809178
:100990003B0288239CF404C080913A028823B9F07A
:1009A0008091E80082FFF8CF8091E8008B778093F8
:1009B000E800089580913A02882349F08091E80088
:1009C00080FFF8CF8091E8008E778093E80008954B
:1009D0004091E4005091E50024E68091EC0080FF16
:1009E00024C08091E80080FD1EC080913A028823D7
:1009F00011F482E00895853011F483E00895809128
:100A0000EB0085FF02C081E008958091E4009091A1
:100A1000E5008417950709F3222311F484E0089573
:100A20002150AC01DACF80E008958091E80082FF88
:100A3000DCCFF9CF40D042D08091D8008F7780931F
:100A4000D8008091D80080688093D8008091D80029
:100A50008F7D8093D80019BC82E089BD09B400FE67
:100A6000FDCF10923A021092360210923802109284
:100A7000370280E060E042E016DF8091E1008E7F87
:100A80008093E1008091E20081608093E200809198
:100A9000E20088608093E2008091E0008E7F809386
:100AA000E0000895E3E6F0E080818E7F808381E0BE
:100AB00080933902BFCF1092E20008951092E100B6
:100AC00008951F920F920FB60F9211241F932F9328
:100AD0003F934F935F936F937F938F939F93AF93C6
:100AE000BF93EF93FF931091E9008091EC00109277
:100AF000E9008091F000877F8093F0007894C2D065
:100B00001092E9008091F00088608093F0001F70DF
:100B10001093E900FF91EF91BF91AF919F918F9159
:100B20007F916F915F914F913F912F911F910F9006
:100B30000FBE0F901F9018951F920F920FB60F9235
:100B400011242F933F934F935F936F937F938F93D2
:100B50009F93AF93BF93EF93FF938091E10082FF48
:100B60000AC08091E20082FF06C08091E1008B7F85
:100B70008093E100EFD18091E10080FF17C0809168
:100B8000E20080FF13C08091E2008E7F8093E2003C
:100B90008091E20080618093E2008091D8008062C1
:100BA0008093D80019BC10923A02E1DB8091E100F9
:100BB00084FF2CC08091E20084FF28C019BC82E031
:100BC00089BD09B400FEFDCF8091D8008F7D809350
:100BD000D8008091E1008F7E8093E1008091E20057
:100BE0008F7E8093E2008091E20081608093E2003A
:100BF00080913602882331F48091E30087FD02C0A2
:100C000081E001C084E080933A02B0DB8091E10092
:100C100083FF27C08091E20083FF23C08091E10021
:100C2000877F8093E10082E080933A02109236023F
:100C30008091E1008E7F8093E1008091E2008E7FC1
:100C40008093E2008091E20080618093E20080E086
:100C500060E042E028DE8091F00088608093F00040
:100C600079D1FF91EF91BF91AF919F918F917F913A
:100C70006F915F914F913F912F910F900FBE0F9009
:100C80001F9018951F93DF93CF93CDB7DEB7AC9726
:100C90000FB6F894DEBF0FBECDBFEBE3F2E080915C
:100CA000F100819322E0E334F207C9F761DB809120
:100CB000E80083FF37C180913B0230913C02353020
:100CC00009F487C0363040F43130C9F1313070F06A
:100CD000333009F027C133C0383009F4F5C039305A
:100CE00009F404C1363009F01DC196C0803821F0E6
:100CF000823809F017C108C09091370280913802FC
:100D0000882399F0926011C080913F028F70809388
:100D1000E9008091EB0090E025E0969587952A9573
:100D2000E1F7982F91701092E9008091E800877F99
:100D30008093E8009093F1001092F100D0C08823D6
:100D400019F0823009F0EEC090E08F71907000973A
:100D500021F0029709F0E6C00CC080913D0281307D
:100D600009F0E0C010923802333069F58093380200
:100D70002AC080913D02882331F520913F022F70D7
:100D800009F4D0C02093E9008091EB0080FF1BC0E4
:100D9000333021F48091EB00806213C08091EB002E
:100DA00080618093EB0081E090E002C0880F991F82
:100DB0002A95E2F78093EA001092EA008091EB0016
:100DC00088608093EB001092E9008091E800877FB3
:100DD00089C0882309F0A6C010913D021F77809139
:100DE000E3008078812B8093E3008091E800877F87
:100DF0008093E800CCDD8091E80080FFFCCF8091FB
:100E0000E30080688093E300112311F482E001C0C5
:100E100083E080933A0286C08058823008F082C016
:100E200080913D0290913E0223E08C3D920709F0B3
:100E300033C083E08C838AE28B837FB7F894DE0132
:100E400015966EE040E050E011E2E62FF0E01093DE
:100E50005700849140FF03C082958F706F5F8F7041
:100E6000282F30E08A3018F0C901C79602C0C901A6
:100E7000C0968D939D934F5F5F4F4431510529F785
:100E80007FBF8091E800877F8093E800CE010396C2
:100E90006AE270E049DC12C060913F02AE014F5F30
:100EA0005F4F14DCBC01009709F43CC08091E8005E
:100EB000877F8093E80089819A8194DC8091E800A3
:100EC0008B778093E8002EC0803861F58091E80030
:100ED000877F8093E800809136028093F1008091B3
:100EE000E8008E778093E80052DD1CC08823D1F49F
:100EF00090913D029230B0F48091E800877F80931A
:100F0000E8009093360243DD80913602882331F465
:100F10008091E30087FD02C081E001C084E08093FE
:100F20003A0229DA8091E80083FF0AC08091E80044
:100F3000877F8093E8008091EB0080628093EB00D4
:100F4000AC960FB6F894DEBF0FBECDBFCF91DF9148
:100F50001F91089508951F9380913A02882371F09C
:100F60001091E9008091EC001092E9008091E80076
:100F700083FF01C087DE1F701093E9001F91089561
:100F8000FC0180913A02843029F584899589A689EB
:100F9000B7890097A105B105E9F086818F7080932C
:100FA000E9008091E80082FF15C08091F20088235B
:100FB00019F42FEF3FEF04C08091F100282F30E0AB
:100FC0008091F200882341F48091E8008B77809330
:100FD000E80002C02FEF3FEFC9010895FB012EE0AA
:100FE000DB011D922A95E9F723E0238328E738E007
:100FF0003187208721E038E03387228795878487EF
:101000000895FC0184859585BBDF9C0197FF02C094
:101010002EEF3FEFC90108950895FC0180913A0237
:10102000843019F584899589A689B7890097A10527
:10103000B105D9F081818F708093E9008091F20031
:101040008823A9F09091E8008091E8008E77809342
:10105000E80095FD0CC0BCDC982F882349F48091F2
:10106000E8008E778093E80003C092E001C090E032
:10107000892F0895FC0180913A02843091F484898B
:101080009589A689B7890097A105B10551F081819D
:101090008F708093E9008091E80080FF02C0CF014B
:1010A000BCCF08951F93FC01162F80913A02843023
:1010B000E1F484899589A689B7890097A105B105CE
:1010C000A1F081818F708093E9008091E80085FD17
:1010D00008C08091E8008E778093E80079DC88234F
:1010E00029F41093F10080E001C082E01F9108957F
:1010F000282FFB0184859585622FD4DF882319F47E
:1011000020E030E002C02FEF3FEFC9010895CF93F8
:10111000DF93EC014096FC018BE0DF011D928A9584
:10112000E9F782E08C83898783E08E87CE01019680
:1011300061E0F1DB882371F0CE01069661E0EBDB24
:10114000882341F0CE010B9661E0E5DB882319F09E
:1011500081E001C080E0DF91CF910895CF93DF93CC
:10116000EC018091E80083FFA3C0888190E020918A
:101170003F02309140022817390709F099C0809149
:101180003C02813269F0823220F4803209F090C052
:101190003CC0823209F46BC0833209F089C07AC046
:1011A00080913B02813A09F083C08091E800877FFB
:1011B0008093E8008091E80080FFFCCF8C899D89B6
:1011C000AE89BF898093F100292F3A2F4B2F5527E5
:1011D0002093F1009D01442755272093F1008B2F88
:1011E0009927AA27BB278093F100888D8093F1006F
:1011F000898D8093F1008A8D8093F1008091E800C1
:101200008E778093E800C3DB53C080913B0281322C
:1012100009F04EC08091E800877F8093E80005C008
:1012200080913A02882309F443C08091E80082FF4C
:10123000F7CF8091F1009091F1002091F100309171
:10124000F1008C8B9D8B2E8B3F8B8091F100888FD2
:101250008091F100898F8091F1008A8F8091E80060
:101260008B778093E80093DBCE01D6DE21C080919E
:101270003B028132E9F48091E800877F8093E800A7
:1012800086DB80913D0290913E02998B888BCE0146
:10129000C3DE0EC080913B02813251F48091E800A0
:1012A000877F8093E80073DBCE0160913D02B4DE5E
:1012B000DF91CF910895FB019F01E8944230BCF08B
:1012C0004532ACF44A3029F497FB1EF49095819591
:1012D0009F4F642F77276CD0805D8A330CF0895D37
:1012E0008193CB010097A9F716F45DE25193108228
:1012F000C90130C0EF92FF920F931F93CF93DF93FA
:101300007C018B01DB0113968C9181FD03C0CFEF33
:10131000DFEF13C0C0E0D0E00BC0D8011896ED910C
:10132000FC911997B8010995892B11F0CFEFDFEFE8
:10133000F70181917F01882381F7CE01CDB7DEB718
:10134000E6E056C0A8E1B0E042E050E015C022D08F
:10135000272F21C0DC01FC01672F71917723E1F772
:10136000329704C07C916D9370836291AE17BF0772
:10137000C8F30895DC01CB01FC01F999FECF06C04A
:10138000F2BDE1BDF89A319600B40D924150504043
:10139000B8F70895262FF999FECF1FBA92BD81BDE7
:1013A00020BD0FB6F894FA9AF99A0FBE01960895E7
:1013B000AA1BBB1B51E107C0AA1FBB1FA617B7077B
:1013C00010F0A61BB70B881F991F5A95A9F7809597
:1013D0009095BC01CD0108952A88398848885F849A
:1013E0006E847D848C849B84AA84B984C884DF80C5
:1013F000EE80FD800C811B81AA81B981CE0FD11DA9
:101400000FB6F894DEBF0FBECDBFED010895F8947E
:02141000FFCF0C
:101412004154490D0052494E47004154480D002B9A
:10142200434C43433A20312C312C362C0041542B6F
:10143200435042573D000D00222C3132392C22619B
:1014420061220D006F6B0D0A002C22000083100038
:1014520000010410000001820800000100000000E9
:0A146200000000000000000101007E
:00000001FF
