:100000007FC0000098C0000096C0000094C00000AF
:1000100092C0000090C000008EC000008CC00000A4
:100020008AC0000088C0000086C000007FC40000B5
:1000300042C4000080C000007EC000007CC0000000
:100040007AC0000078C0000076C0000075C00000D3
:1000500072C0000070C000006EC00000DCC1000073
:100060006AC0000068C0000066C0000064C00000F4
:1000700062C000001201100102000008EB034420DE
:1000800001000102DC0109023E00020100C0320948
:1000900004000001020201000524001001042402F2
:1000A000060524060001070582030800FF09040174
:1000B00000020A000000070504021000050705837E
:1000C00002100005040309041803440065006100E0
:1000D0006E002000430061006D0065007200610049
:1000E00000001C034C005500460041002000430066
:1000F000440043002000440065006D006F000000D4
:1001000011241FBECFEFD2E0DEBFCDBF11E0A0E0D3
:10011000B1E0E4E3F1E102C005900D92A034B10733
:10012000D9F712E0A0E4B1E001C01D92A832B107F6
:10013000E1F73CD1FDC764CF1F920F920FB60F922B
:1001400011242F938F939F938091430190914401A9
:1001500001969093440180934301809143019091D3
:1001600044018D52914044F085B190E4892785B9CE
:1001700010924401109243019F918F912F910F9003
:100180000FBE0F901F901895982F8091C80085FF83
:10019000FCCF9093CE000895CF93DF93EC0102C083
:1001A0002196F2DF88818823D9F7DF91CF910895D6
:1001B000479A80E395E728EC30E0F9013197F1F7B1
:1001C0000197D9F747980895DC018C91282F30E0EA
:1001D00041E050E00BC04F5F5F4F80913F01992796
:1001E00087FD9095481759070CF045C0FA01ED5A64
:1001F000FE4F8081992787FD90952817390759F779
:1002000016C0FA01ED5AFE4F8081992787FD90951F
:1002100030E08217930779F54F5F5F4F80913F0180
:10022000992787FD9095481759072CF511962C9121
:10023000222339F71092420113C0E0914201FF27B7
:10024000E7FDF095DA01AD5ABE4F8C91E954FE4FAF
:100250008083809142018F5F809342014F5F5F4FA7
:1002600080913F01992787FD90950197481759077D
:1002700024F381E0089580E0089580913F01823069
:1002800094F022E006C0ED5AFE4F80818D3061F07F
:100290002F5FE22FF0E080913F01992787FD909535
:1002A000E817F90784F320E0822F089580913F0139
:1002B00082300CF1E2DF8823F1F080E091E084DF0E
:1002C000813061F485E091E067DF88E893E128EC14
:1002D00030E0F9013197F1F70197D9F78AE091E021
:1002E00073DF813029F48091CC01823209F060DF24
:1002F00081E080933F010895E8ECF0E020812260E6
:100300002083E9ECF0E0208128692083EAECF0E02A
:100310002081266020839093CD008093CC00539A57
:1003200008950895089583E291E012C60F931F93F4
:1003300000913E0183E291E0E4D520E090E010E0FE
:1003400080239123892B09F021E020933E011F9106
:100350000F91089584B7877F84BF88E10FB6F89422
:1003600080936000109260000FBE80E784B980E83F
:1003700087B9429A80E090E020E80FB6F894209385
:100380006100809361000FBE87D283E390E0B4DF09
:1003900084B5826084BD85B5856085BDEEE6F0E0FC
:1003A0008081826080838FEF87BD0895D3DF83E2F1
:1003B00091E065E471E00CD5789480E197E228EC57
:1003C00030E0F9013197F1F70197D9F72C9A88E9D4
:1003D0009AE328EC30E0F9013197F1F70197D9F76A
:1003E0002C9880E395E728EC30E0F9013197F1F79C
:1003F0000197D9F72D9A80913E01882351F083E22D
:1004000091E0B8D497FD01C0BFDE83E291E02CD526
:100410009CD44CDFF0CF1F920F920FB60F92112495
:100420001F932F933F934F935F936F937F938F937C
:100430009F93AF93BF93EF93FF93DF93CF9300D03E
:10044000CDB7DEB71091CE0080913E01882359F0E0
:10045000812F992787FD90959A838983CE010196F4
:1004600065E471E022D680913F01813011F41D30A6
:1004700089F480913F0183366CF4E0913F01FF27BE
:10048000E7FDF095ED5AFE4F108380913F018F5F9D
:1004900080933F010F900F90CF91DF91FF91EF91EB
:1004A000BF91AF919F918F917F916F915F914F918C
:1004B0003F912F911F910F900FBE0F901F90189595
:1004C000DA01923049F0933061F09130F9F4E4E7C9
:1004D000F0E022E130E01EC0E6E8F0E02EE330E09C
:1004E00019C0813049F0813018F0823079F408C0A9
:1004F000E4ECF0E0849107C0E8ECF0E0849103C004
:10050000E2EEF0E08491282F30E004C0E0E0F0E07B
:1005100020E030E0ED93FC93C90108959C014091E7
:100520002602509127024617570718F4F90190E068
:100530003DC06115710511F0AB01F8CF8091E80065
:100540008E778093E80040E050E0F0CF80911F026A
:100550008823F1F18530F1F18091E80083FF02C03A
:1005600081E008958091E80082FD2CC08091E80030
:1005700080FF1CC08091F200282F30E007C08191DD
:100580008093F100415050402F5F3F4F411551057E
:1005900019F02830310598F390E02830310509F43E
:1005A00091E08091E8008E778093E8004115510535
:1005B00069F6992359F606C080911F02882341F0FD
:1005C000853041F08091E80082FFF6CF80E0089509
:1005D00082E0089583E008959C01409126025091A5
:1005E00027024617570718F4F90190E040C061153B
:1005F000710511F0AB01F8CF8091E8008E77809300
:10060000E80040E050E0F0CF80911F02882309F419
:1006100040C0853009F43FC08091E80083FF02C0EC
:1006200081E008958091E80082FD2DC08091E8006E
:1006300080FF1DC08091F200282F30E008C0849117
:100640008093F1003196415050402F5F3F4F41154C
:10065000510519F02830310590F390E0283031052C
:1006600009F491E08091E8008E778093E8004115CD
:10067000510551F6992341F606C080911F02882347
:1006800041F0853041F08091E80082FFF6CF80E0B4
:10069000089582E0089583E00895382F282F2EC012
:1006A000822F8F708093E900231721F4762F942FE7
:1006B00050E006C07091EC009091ED005091F00078
:1006C00091FF1BC08091EB008E7F8093EB008091A7
:1006D000ED008D7F8093ED008091EB008160809331
:1006E000EB007093EC009093ED005093F00080913C
:1006F000EE0087FD02C080E008952F5F253080F274
:100700003F703093E90081E008950F931F93CF93DA
:10071000DF93062FEC0110E02AC09881992329F17C
:100720006B81E981FA812C81892F8F70853018F5D2
:10073000223010F452E001C056E040E028E030E002
:1007400003C04F5F220F331F2E173F07D0F3629570
:10075000660F660F607C991F9927991F692B429538
:10076000407F452B9ADF882331F01F5F25961017B5
:10077000A0F281E001C080E0DF91CF911F910F9145
:1007800008958091200288239CF404C080911F0268
:100790008823B9F08091E80082FFF8CF8091E800CB
:1007A0008B778093E800089580911F02882349F099
:1007B0008091E80080FFF8CF8091E8008E778093E9
:1007C000E80008954091E4005091E50024E680910E
:1007D000EC0080FF24C08091E80080FD1EC0809165
:1007E0001F02882311F482E00895853011F483E01C
:1007F00008958091EB0085FF02C081E0089580910B
:10080000E4009091E5008417950709F3222311F481
:1008100084E008952150AC01DACF80E00895809102
:10082000E80082FFDCCFF9CF40D042D08091D800E1
:100830008F778093D8008091D80080688093D8000B
:100840008091D8008F7D8093D80019BC82E089BD4B
:1008500009B400FEFDCF10921F0210921B021092ED
:100860001D0210921C0280E060E042E016DF8091E1
:10087000E1008E7F8093E1008091E20081608093AF
:10088000E2008091E20088608093E2008091E000C5
:100890008E7F8093E0000895E3E6F0E080818E7F14
:1008A000808381E080931E02BFCF1092E200089502
:1008B0001092E10008951F920F920FB60F9211242B
:1008C0001F932F933F934F935F936F937F938F93D8
:1008D0009F93AF93BF93EF93FF931091E9008091A3
:1008E000EC001092E9008091F000877F8093F00087
:1008F0007894C2D01092E9008091F00088608093D3
:10090000F0001F701093E900FF91EF91BF91AF913C
:100910009F918F917F916F915F914F913F912F9117
:100920001F910F900FBE0F901F9018951F920F925E
:100930000FB60F9211242F933F934F935F936F93B2
:100940007F938F939F93AF93BF93EF93FF93809188
:10095000E10082FF0AC08091E20082FF06C0809120
:10096000E1008B7F8093E100EFD18091E10080FF77
:1009700017C08091E20080FF13C08091E2008E7F5B
:100980008093E2008091E20080618093E200809198
:10099000D80080628093D80019BC10921F02C2DC7C
:1009A0008091E10084FF2CC08091E20084FF28C088
:1009B00019BC82E089BD09B400FEFDCF8091D8004A
:1009C0008F7D8093D8008091E1008F7E8093E1003D
:1009D0008091E2008F7E8093E2008091E20081604E
:1009E0008093E20080911B02882331F48091E30020
:1009F00087FD02C081E001C084E080931F0291DC8A
:100A00008091E10083FF27C08091E20083FF23C033
:100A10008091E100877F8093E10082E080931F0254
:100A200010921B028091E1008E7F8093E100809103
:100A3000E2008E7F8093E2008091E20080618093EB
:100A4000E20080E060E042E028DE8091F000886013
:100A50008093F00079D1FF91EF91BF91AF919F9179
:100A60008F917F916F915F914F913F912F910F9057
:100A70000FBE0F901F9018951F93DF93CF93CDB7A4
:100A8000DEB7AC970FB6F894DEBF0FBECDBFE0E285
:100A9000F2E08091F100819322E0E832F207C9F799
:100AA00042DC8091E80083FF37C1809120023091C1
:100AB0002102353009F487C0363040F43130C9F1B5
:100AC000313070F0333009F027C133C0383009F4C9
:100AD000F5C0393009F404C1363009F01DC196C0A3
:100AE000803821F0823809F017C108C090911C02AB
:100AF00080911D02882399F0926011C08091240298
:100B00008F708093E9008091EB0090E025E096954E
:100B100087952A95E1F7982F91701092E9008091BE
:100B2000E800877F8093E8009093F1001092F10035
:100B3000D0C0882319F0823009F0EEC090E08F71A8
:100B40009070009721F0029709F0E6C00CC08091E8
:100B50002202813009F0E0C010921D02333069F5A5
:100B600080931D022AC080912202882331F52091B2
:100B700024022F7009F4D0C02093E9008091EB008B
:100B800080FF1BC0333021F48091EB00806213C0E2
:100B90008091EB0080618093EB0081E090E002C0E7
:100BA000880F991F2A95E2F78093EA001092EA00D5
:100BB0008091EB0088608093EB001092E9008091B7
:100BC000E800877F89C0882309F0A6C0109122021F
:100BD0001F778091E3008078812B8093E3008091E0
:100BE000E800877F8093E800CCDD8091E80080FFFB
:100BF000FCCF8091E30080688093E300112311F41F
:100C000082E001C083E080931F0286C0805882305A
:100C100008F082C0809122029091230223E08C3D53
:100C2000920709F033C083E08C838AE28B837FB71D
:100C3000F894DE0115966EE040E050E011E2E62FF8
:100C4000F0E010935700849140FF03C082958F70AD
:100C50006F5F8F70282F30E08A3018F0C901C79677
:100C600002C0C901C0968D939D934F5F5F4F443181
:100C7000510529F77FBF8091E800877F8093E800C6
:100C8000CE0103966AE270E049DC12C06091240252
:100C9000AE014F5F5F4F14DCBC01009709F43CC00C
:100CA0008091E800877F8093E80089819A8194DCB5
:100CB0008091E8008B778093E8002EC0803861F542
:100CC0008091E800877F8093E80080911B028093E9
:100CD000F1008091E8008E778093E80052DD1CC01F
:100CE0008823D1F4909122029230B0F48091E800F0
:100CF000877F8093E80090931B0243DD80911B0265
:100D0000882331F48091E30087FD02C081E001C0B7
:100D100084E080931F020ADB8091E80083FF0AC011
:100D20008091E800877F8093E8008091EB008062EB
:100D30008093EB00AC960FB6F894DEBF0FBECDBF2C
:100D4000CF91DF911F91089508951F9380911F0205
:100D5000882371F01091E9008091EC001092E90075
:100D60008091E80083FF01C087DE1F701093E900C7
:100D70001F910895FC0180911F02843029F5848918
:100D80009589A689B7890097A105B105E9F0868103
:100D90008F708093E9008091E80082FF15C08091F8
:100DA000F200882319F42FEF3FEF04C08091F10087
:100DB000282F30E08091F200882341F48091E800F0
:100DC0008B778093E80002C02FEF3FEFC9010895B1
:100DD000FB012EE0DB011D922A95E9F723E0238336
:100DE00022E737E0318720872BEF36E033872287F1
:100DF000958784870895FC0184859585BBDF9C01D8
:100E000097FF02C02EEF3FEFC90108950895FC013E
:100E100080911F02843019F584899589A689B78944
:100E20000097A105B105D9F081818F708093E90009
:100E30008091F2008823A9F09091E8008091E80069
:100E40008E778093E80095FD0CC0BCDC982F88233A
:100E500049F48091E8008E778093E80003C092E027
:100E600001C090E0892F0895FC0180911F02843019
:100E700091F484899589A689B7890097A105B10560
:100E800051F081818F708093E9008091E80080FFAC
:100E900002C0CF01BCCF08951F93FC01162F809193
:100EA0001F028430E1F484899589A689B789009767
:100EB000A105B105A1F081818F708093E900809137
:100EC000E80085FD08C08091E8008E778093E800F7
:100ED00079DC882329F41093F10080E001C082E0DE
:100EE0001F910895282FFB0184859585622FD4DFFB
:100EF000882319F420E030E002C02FEF3FEFC90152
:100F00000895CF93DF93EC014096FC018BE0DF0165
:100F10001D928A95E9F782E08C83898783E08E872A
:100F2000CE01019661E0F1DB882371F0CE010696D7
:100F300061E0EBDB882341F0CE010B9661E0E5DB5D
:100F4000882319F081E001C080E0DF91CF910895FE
:100F5000CF93DF93EC018091E80083FFA3C08881E9
:100F600090E020912402309125022817390709F0DA
:100F700099C080912102813269F0823220F480325E
:100F800009F090C03CC0823209F46BC0833209F092
:100F900089C07AC080912002813A09F083C0809193
:100FA000E800877F8093E8008091E80080FFFCCF15
:100FB0008C899D89AE89BF898093F100292F3A2FB2
:100FC0004B2F55272093F1009D014427552720934F
:100FD000F1008B2F9927AA27BB278093F100888DDA
:100FE0008093F100898D8093F1008A8D8093F100C8
:100FF0008091E8008E778093E800C3DB53C0809136
:101000002002813209F04EC08091E800877F8093F2
:10101000E80005C080911F02882309F443C0809135
:10102000E80082FFF7CF8091F1009091F1002091CC
:10103000F1003091F1008C8B9D8B2E8B3F8B80913A
:10104000F100888F8091F100898F8091F1008A8F63
:101050008091E8008B778093E80093DBCE01D6DEA9
:1010600021C0809120028132E9F48091E800877FDD
:101070008093E80086DB8091220290912302998B75
:10108000888BCE01C3DE0EC080912002813251F4E4
:101090008091E800877F8093E80073DBCE01609148
:1010A0002202B4DEDF91CF910895EF92FF920F9369
:1010B0001F93CF93DF937C018B01DB0113968C91FF
:1010C00081FD03C0CFEFDFEF13C0C0E0D0E00BC065
:1010D000D8011896ED91FC911997B8010995892BC3
:1010E00011F0CFEFDFEFF70181917F01882381F7C6
:1010F000CE01CDB7DEB7E6E00CC02A883988488833
:101100005F846E847D848C849B84AA84B984C88423
:10111000DF80EE80FD800C811B81AA81B981CE0F1A
:10112000D11D0FB6F894DEBF0FBECDBFED010895FF
:04113000F894FFCF61
:1011340052494E47004154480D002B434C43433A17
:1011440020312C312C362C0041542B435042573D36
:10115400000D00008310000001041000000182084B
:101164000000010000000000000000000000010178
:00000001FF
